{
  "_format": "hh-sol-artifact-1",
  "contractName": "SupplyChain",
  "sourceName": "contracts/SupplyChain.sol",
  "abi": [
    {
      "anonymous": false,
      "inputs": [
        {
          "indexed": false,
          "internalType": "string",
          "name": "batchId",
          "type": "string"
        },
        {
          "indexed": false,
          "internalType": "address",
          "name": "createdBy",
          "type": "address"
        }
      ],
      "name": "BatchCreated",
      "type": "event"
    },
    {
      "anonymous": false,
      "inputs": [
        {
          "indexed": false,
          "internalType": "string",
          "name": "batchId",
          "type": "string"
        }
      ],
      "name": "BatchReceived",
      "type": "event"
    },
    {
      "anonymous": false,
      "inputs": [
        {
          "indexed": false,
          "internalType": "string",
          "name": "batchId",
          "type": "string"
        }
      ],
      "name": "BatchShipped",
      "type": "event"
    },
    {
      "inputs": [
        {
          "internalType": "string",
          "name": "",
          "type": "string"
        }
      ],
      "name": "batches",
      "outputs": [
        {
          "internalType": "string",
          "name": "medicineName",
          "type": "string"
        },
        {
          "internalType": "uint256",
          "name": "bigBoxCount",
          "type": "uint256"
        },
        {
          "internalType": "uint256",
          "name": "smallBoxPerBigBox",
          "type": "uint256"
        },
        {
          "internalType": "uint256",
          "name": "stripsPerSmallBox",
          "type": "uint256"
        },
        {
          "internalType": "address",
          "name": "createdBy",
          "type": "address"
        },
        {
          "internalType": "bool",
          "name": "shipped",
          "type": "bool"
        },
        {
          "internalType": "bool",
          "name": "received",
          "type": "bool"
        }
      ],
      "stateMutability": "view",
      "type": "function"
    },
    {
      "inputs": [
        {
          "internalType": "string",
          "name": "batchId",
          "type": "string"
        },
        {
          "internalType": "string",
          "name": "medicineName",
          "type": "string"
        },
        {
          "internalType": "uint256",
          "name": "bigBoxCount",
          "type": "uint256"
        },
        {
          "internalType": "uint256",
          "name": "smallBoxPerBigBox",
          "type": "uint256"
        },
        {
          "internalType": "uint256",
          "name": "stripsPerSmallBox",
          "type": "uint256"
        }
      ],
      "name": "createBatch",
      "outputs": [],
      "stateMutability": "nonpayable",
      "type": "function"
    },
    {
      "inputs": [
        {
          "internalType": "string",
          "name": "batchId",
          "type": "string"
        }
      ],
      "name": "getBatch",
      "outputs": [
        {
          "internalType": "string",
          "name": "",
          "type": "string"
        },
        {
          "internalType": "uint256",
          "name": "",
          "type": "uint256"
        },
        {
          "internalType": "uint256",
          "name": "",
          "type": "uint256"
        },
        {
          "internalType": "uint256",
          "name": "",
          "type": "uint256"
        },
        {
          "internalType": "address",
          "name": "",
          "type": "address"
        },
        {
          "internalType": "bool",
          "name": "",
          "type": "bool"
        },
        {
          "internalType": "bool",
          "name": "",
          "type": "bool"
        }
      ],
      "stateMutability": "view",
      "type": "function"
    },
    {
      "inputs": [
        {
          "internalType": "string",
          "name": "batchId",
          "type": "string"
        }
      ],
      "name": "markAsReceived",
      "outputs": [],
      "stateMutability": "nonpayable",
      "type": "function"
    },
    {
      "inputs": [
        {
          "internalType": "string",
          "name": "batchId",
          "type": "string"
        }
      ],
      "name": "markAsShipped",
      "outputs": [],
      "stateMutability": "nonpayable",
      "type": "function"
    }
  ],
  "bytecode": "0x608060405234801561001057600080fd5b5061106e806100206000396000f3fe608060405234801561001057600080fd5b50600436106100575760003560e01c806335d027811461005c578063648400ca14610078578063750be6b4146100945780637ef1446a146100b0578063f9ca4274146100e6575b600080fd5b610076600480360381019061007191906108df565b61011c565b005b610092600480360381019061008d919061095e565b61026d565b005b6100ae60048036038101906100a991906108df565b6103d8565b005b6100ca60048036038101906100c591906108df565b6104bb565b6040516100dd9796959493929190610afb565b60405180910390f35b61010060048036038101906100fb91906108df565b6105d5565b6040516101139796959493929190610afb565b60405180910390f35b60008160405161012c9190610bad565b908152602001604051809103902060040160149054906101000a900460ff1661018a576040517f08c379a000000000000000000000000000000000000000000000000000000000815260040161018190610c10565b60405180910390fd5b60008160405161019a9190610bad565b908152602001604051809103902060040160159054906101000a900460ff16156101f9576040517f08c379a00000000000000000000000000000000000000000000000000000000081526004016101f090610c7c565b60405180910390fd5b600160008260405161020b9190610bad565b908152602001604051809103902060040160156101000a81548160ff0219169083151502179055507f7ba3b6dc3af51ba127198651568ebb20062ecf4744dcbdc46ef6afade431239c816040516102629190610c9c565b60405180910390a150565b6040518060e001604052808581526020018481526020018381526020018281526020013373ffffffffffffffffffffffffffffffffffffffff168152602001600015158152602001600015158152506000866040516102cc9190610bad565b908152602001604051809103902060008201518160000190816102ef9190610eca565b5060208201518160010155604082015181600201556060820151816003015560808201518160040160006101000a81548173ffffffffffffffffffffffffffffffffffffffff021916908373ffffffffffffffffffffffffffffffffffffffff16021790555060a08201518160040160146101000a81548160ff02191690831515021790555060c08201518160040160156101000a81548160ff0219169083151502179055509050507faa2e1f9e65e9df2b17cca112ac2b09c46401f1dba8fc33f495fb371ac508459a85336040516103c9929190610f9c565b60405180910390a15050505050565b6000816040516103e89190610bad565b908152602001604051809103902060040160149054906101000a900460ff1615610447576040517f08c379a000000000000000000000000000000000000000000000000000000000815260040161043e90611018565b60405180910390fd5b60016000826040516104599190610bad565b908152602001604051809103902060040160146101000a81548160ff0219169083151502179055507f5c74a58134d6528500447ae749a8b5675185df775f1a8c60c83a217c84893dce816040516104b09190610c9c565b60405180910390a150565b6000818051602081018201805184825260208301602085012081835280955050505050506000915090508060000180546104f490610ced565b80601f016020809104026020016040519081016040528092919081815260200182805461052090610ced565b801561056d5780601f106105425761010080835404028352916020019161056d565b820191906000526020600020905b81548152906001019060200180831161055057829003601f168201915b5050505050908060010154908060020154908060030154908060040160009054906101000a900473ffffffffffffffffffffffffffffffffffffffff16908060040160149054906101000a900460ff16908060040160159054906101000a900460ff16905087565b6060600080600080600080600080896040516105f19190610bad565b90815260200160405180910390206040518060e001604052908160008201805461061a90610ced565b80601f016020809104026020016040519081016040528092919081815260200182805461064690610ced565b80156106935780601f1061066857610100808354040283529160200191610693565b820191906000526020600020905b81548152906001019060200180831161067657829003601f168201915b505050505081526020016001820154815260200160028201548152602001600382015481526020016004820160009054906101000a900473ffffffffffffffffffffffffffffffffffffffff1673ffffffffffffffffffffffffffffffffffffffff1673ffffffffffffffffffffffffffffffffffffffff1681526020016004820160149054906101000a900460ff161515151581526020016004820160159054906101000a900460ff1615151515815250509050806000015181602001518260400151836060015184608001518560a001518660c00151975097509750975097509750975050919395979092949650565b6000604051905090565b600080fd5b600080fd5b600080fd5b600080fd5b6000601f19601f8301169050919050565b7f4e487b7100000000000000000000000000000000000000000000000000000000600052604160045260246000fd5b6107ec826107a3565b810181811067ffffffffffffffff8211171561080b5761080a6107b4565b5b80604052505050565b600061081e610785565b905061082a82826107e3565b919050565b600067ffffffffffffffff82111561084a576108496107b4565b5b610853826107a3565b9050602081019050919050565b82818337600083830152505050565b600061088261087d8461082f565b610814565b90508281526020810184848401111561089e5761089d61079e565b5b6108a9848285610860565b509392505050565b600082601f8301126108c6576108c5610799565b5b81356108d684826020860161086f565b91505092915050565b6000602082840312156108f5576108f461078f565b5b600082013567ffffffffffffffff81111561091357610912610794565b5b61091f848285016108b1565b91505092915050565b6000819050919050565b61093b81610928565b811461094657600080fd5b50565b60008135905061095881610932565b92915050565b600080600080600060a0868803121561097a5761097961078f565b5b600086013567ffffffffffffffff81111561099857610997610794565b5b6109a4888289016108b1565b955050602086013567ffffffffffffffff8111156109c5576109c4610794565b5b6109d1888289016108b1565b94505060406109e288828901610949565b93505060606109f388828901610949565b9250506080610a0488828901610949565b9150509295509295909350565b600081519050919050565b600082825260208201905092915050565b60005b83811015610a4b578082015181840152602081019050610a30565b60008484015250505050565b6000610a6282610a11565b610a6c8185610a1c565b9350610a7c818560208601610a2d565b610a85816107a3565b840191505092915050565b610a9981610928565b82525050565b600073ffffffffffffffffffffffffffffffffffffffff82169050919050565b6000610aca82610a9f565b9050919050565b610ada81610abf565b82525050565b60008115159050919050565b610af581610ae0565b82525050565b600060e0820190508181036000830152610b15818a610a57565b9050610b246020830189610a90565b610b316040830188610a90565b610b3e6060830187610a90565b610b4b6080830186610ad1565b610b5860a0830185610aec565b610b6560c0830184610aec565b98975050505050505050565b600081905092915050565b6000610b8782610a11565b610b918185610b71565b9350610ba1818560208601610a2d565b80840191505092915050565b6000610bb98284610b7c565b915081905092915050565b7f4e6f742079657420736869707065640000000000000000000000000000000000600082015250565b6000610bfa600f83610a1c565b9150610c0582610bc4565b602082019050919050565b60006020820190508181036000830152610c2981610bed565b9050919050565b7f416c726561647920726563656976656400000000000000000000000000000000600082015250565b6000610c66601083610a1c565b9150610c7182610c30565b602082019050919050565b60006020820190508181036000830152610c9581610c59565b9050919050565b60006020820190508181036000830152610cb68184610a57565b905092915050565b7f4e487b7100000000000000000000000000000000000000000000000000000000600052602260045260246000fd5b60006002820490506001821680610d0557607f821691505b602082108103610d1857610d17610cbe565b5b50919050565b60008190508160005260206000209050919050565b60006020601f8301049050919050565b600082821b905092915050565b600060088302610d807fffffffffffffffffffffffffffffffffffffffffffffffffffffffffffffffff82610d43565b610d8a8683610d43565b95508019841693508086168417925050509392505050565b6000819050919050565b6000610dc7610dc2610dbd84610928565b610da2565b610928565b9050919050565b6000819050919050565b610de183610dac565b610df5610ded82610dce565b848454610d50565b825550505050565b600090565b610e0a610dfd565b610e15818484610dd8565b505050565b5b81811015610e3957610e2e600082610e02565b600181019050610e1b565b5050565b601f821115610e7e57610e4f81610d1e565b610e5884610d33565b81016020851015610e67578190505b610e7b610e7385610d33565b830182610e1a565b50505b505050565b600082821c905092915050565b6000610ea160001984600802610e83565b1980831691505092915050565b6000610eba8383610e90565b9150826002028217905092915050565b610ed382610a11565b67ffffffffffffffff811115610eec57610eeb6107b4565b5b610ef68254610ced565b610f01828285610e3d565b600060209050601f831160018114610f345760008415610f22578287015190505b610f2c8582610eae565b865550610f94565b601f198416610f4286610d1e565b60005b82811015610f6a57848901518255600182019150602085019450602081019050610f45565b86831015610f875784890151610f83601f891682610e90565b8355505b6001600288020188555050505b505050505050565b60006040820190508181036000830152610fb68185610a57565b9050610fc56020830184610ad1565b9392505050565b7f416c726561647920736869707065640000000000000000000000000000000000600082015250565b6000611002600f83610a1c565b915061100d82610fcc565b602082019050919050565b6000602082019050818103600083015261103181610ff5565b905091905056fea2646970667358221220a7634b31a607f718984c710c3e92f362b51298d94082d5a3023558a1ddf0133564736f6c63430008140033",
  "linkReferences": {},
  "deployedLinkReferences": {}
}